{
  "contractName": "SimpleStorage",
  "abi": [
    {
      "constant": true,
      "inputs": [],
      "name": "value",
      "outputs": [
        {
          "internalType": "uint256",
          "name": "",
          "type": "uint256"
        }
      ],
      "payable": false,
      "stateMutability": "view",
      "type": "function"
    },
    {
      "constant": false,
      "inputs": [],
      "name": "increment",
      "outputs": [
        {
          "internalType": "uint256",
          "name": "result",
          "type": "uint256"
        }
      ],
      "payable": false,
      "stateMutability": "nonpayable",
      "type": "function"
    },
    {
      "constant": false,
      "inputs": [],
      "name": "decrement",
      "outputs": [
        {
          "internalType": "uint256",
          "name": "result",
          "type": "uint256"
        }
      ],
      "payable": false,
      "stateMutability": "nonpayable",
      "type": "function"
    }
  ],
  "bytecode": "0x6080604052600160005534801561001557600080fd5b50610102806100256000396000f3fe6080604052348015600f57600080fd5b5060043610603c5760003560e01c80632baeceb71460415780633fa4f24514605d578063d09de08a146079575b600080fd5b60476095565b6040518082815260200191505060405180910390f35b606360ae565b6040518082815260200191505060405180910390f35b607f60b4565b6040518082815260200191505060405180910390f35b6000805490506001600080828254039250508190555090565b60005481565b600080549050600160008082825401925050819055509056fea265627a7a72315820c705ee76eba298623a4ba610906c60441530b43c1fb8d7c2e2cbd8f7018d35f364736f6c63430005100032",
  "source": "pragma solidity >=0.4.22 <0.8.0;\r\n\r\ncontract SimpleStorage {\r\n  uint public value = 1;\r\n\r\n   function increment() public returns(uint result) {\r\n    result = value;\r\n    value += 1;\r\n  }\r\n\r\n  function decrement() public returns(uint result) {\r\n    result = value;\r\n    value -= 1;\r\n  }\r\n\r\n}\r\n",
  "sourcePath": "C:/Users/ross4/Desktop/Coding/Blockchain-Code/transparent-voting/src/contracts/SimpleStorage.sol",
  "compiler": {
    "name": "solc",
    "version": "0.5.16+commit.9c3226ce.Emscripten.clang"
  },
  "schemaVersion": "3.2.3",
  "updatedAt": "2022-03-08T23:56:58.370Z",
  "devdoc": {
    "methods": {}
  },
  "userdoc": {
    "methods": {}
  }
}