{
  "contractName": "Voting",
  "abi": [
    {
      "anonymous": false,
      "inputs": [
        {
          "indexed": false,
          "internalType": "uint256",
          "name": "id",
          "type": "uint256"
        },
        {
          "indexed": false,
          "internalType": "address",
          "name": "user",
          "type": "address"
        },
        {
          "indexed": false,
          "internalType": "string",
          "name": "poll",
          "type": "string"
        },
        {
          "indexed": false,
          "internalType": "string",
          "name": "choice1",
          "type": "string"
        },
        {
          "indexed": false,
          "internalType": "string",
          "name": "choice2",
          "type": "string"
        },
        {
          "indexed": false,
          "internalType": "uint256",
          "name": "timestamp",
          "type": "uint256"
        }
      ],
      "name": "PollEvent",
      "type": "event"
    },
    {
      "anonymous": false,
      "inputs": [
        {
          "indexed": false,
          "internalType": "uint256",
          "name": "id",
          "type": "uint256"
        },
        {
          "indexed": false,
          "internalType": "address",
          "name": "user",
          "type": "address"
        },
        {
          "indexed": false,
          "internalType": "string",
          "name": "poll",
          "type": "string"
        },
        {
          "indexed": false,
          "internalType": "string",
          "name": "choice",
          "type": "string"
        },
        {
          "indexed": false,
          "internalType": "uint256",
          "name": "voteCount",
          "type": "uint256"
        },
        {
          "indexed": false,
          "internalType": "uint256",
          "name": "timestamp",
          "type": "uint256"
        }
      ],
      "name": "VoteEvent",
      "type": "event"
    },
    {
      "constant": true,
      "inputs": [],
      "name": "choice1",
      "outputs": [
        {
          "internalType": "string",
          "name": "",
          "type": "string"
        }
      ],
      "payable": false,
      "stateMutability": "view",
      "type": "function"
    },
    {
      "constant": true,
      "inputs": [],
      "name": "choice2",
      "outputs": [
        {
          "internalType": "string",
          "name": "",
          "type": "string"
        }
      ],
      "payable": false,
      "stateMutability": "view",
      "type": "function"
    },
    {
      "constant": true,
      "inputs": [
        {
          "internalType": "address",
          "name": "",
          "type": "address"
        }
      ],
      "name": "hasVoted",
      "outputs": [
        {
          "internalType": "bool",
          "name": "",
          "type": "bool"
        }
      ],
      "payable": false,
      "stateMutability": "view",
      "type": "function"
    },
    {
      "constant": true,
      "inputs": [],
      "name": "poll",
      "outputs": [
        {
          "internalType": "string",
          "name": "",
          "type": "string"
        }
      ],
      "payable": false,
      "stateMutability": "view",
      "type": "function"
    },
    {
      "constant": true,
      "inputs": [],
      "name": "pollCount",
      "outputs": [
        {
          "internalType": "uint256",
          "name": "",
          "type": "uint256"
        }
      ],
      "payable": false,
      "stateMutability": "view",
      "type": "function"
    },
    {
      "constant": true,
      "inputs": [
        {
          "internalType": "uint256",
          "name": "",
          "type": "uint256"
        }
      ],
      "name": "polls",
      "outputs": [
        {
          "internalType": "uint256",
          "name": "id",
          "type": "uint256"
        },
        {
          "internalType": "address",
          "name": "user",
          "type": "address"
        },
        {
          "internalType": "string",
          "name": "poll",
          "type": "string"
        },
        {
          "internalType": "string",
          "name": "choice1",
          "type": "string"
        },
        {
          "internalType": "string",
          "name": "choice2",
          "type": "string"
        },
        {
          "internalType": "uint256",
          "name": "timestamp",
          "type": "uint256"
        }
      ],
      "payable": false,
      "stateMutability": "view",
      "type": "function"
    },
    {
      "constant": true,
      "inputs": [],
      "name": "timePeriod",
      "outputs": [
        {
          "internalType": "uint256",
          "name": "",
          "type": "uint256"
        }
      ],
      "payable": false,
      "stateMutability": "view",
      "type": "function"
    },
    {
      "constant": true,
      "inputs": [],
      "name": "timePeriodTest",
      "outputs": [
        {
          "internalType": "uint256",
          "name": "",
          "type": "uint256"
        }
      ],
      "payable": false,
      "stateMutability": "view",
      "type": "function"
    },
    {
      "constant": true,
      "inputs": [],
      "name": "voteCount",
      "outputs": [
        {
          "internalType": "uint256",
          "name": "",
          "type": "uint256"
        }
      ],
      "payable": false,
      "stateMutability": "view",
      "type": "function"
    },
    {
      "constant": true,
      "inputs": [],
      "name": "voteId",
      "outputs": [
        {
          "internalType": "uint256",
          "name": "",
          "type": "uint256"
        }
      ],
      "payable": false,
      "stateMutability": "view",
      "type": "function"
    },
    {
      "constant": true,
      "inputs": [
        {
          "internalType": "string",
          "name": "",
          "type": "string"
        }
      ],
      "name": "votes",
      "outputs": [
        {
          "internalType": "uint256",
          "name": "",
          "type": "uint256"
        }
      ],
      "payable": false,
      "stateMutability": "view",
      "type": "function"
    },
    {
      "constant": false,
      "inputs": [
        {
          "internalType": "string",
          "name": "_poll",
          "type": "string"
        },
        {
          "internalType": "string",
          "name": "_choice1",
          "type": "string"
        },
        {
          "internalType": "string",
          "name": "_choice2",
          "type": "string"
        }
      ],
      "name": "createPoll",
      "outputs": [],
      "payable": false,
      "stateMutability": "nonpayable",
      "type": "function"
    },
    {
      "constant": false,
      "inputs": [
        {
          "internalType": "string",
          "name": "_choice",
          "type": "string"
        },
        {
          "internalType": "string",
          "name": "_poll",
          "type": "string"
        }
      ],
      "name": "vote",
      "outputs": [],
      "payable": false,
      "stateMutability": "nonpayable",
      "type": "function"
    }
  ],
  "bytecode": "0x6080604052601e42016000556028420160015534801561001e57600080fd5b506114dd8061002e6000396000f3fe608060405234801561001057600080fd5b50600436106100cf5760003560e01c8063ac2f00741161008c578063df3c52f311610066578063df3c52f3146105a2578063e201201c146105c0578063e8d5940d146107a9578063fbb39651146108fb576100cf565b8063ac2f0074146102f5578063b99ef1fa146104b5578063c638407114610584576100cf565b806309eef43e146100d45780633e79d1e11461013057806349e811c51461014e57806387cfa5bf146101d15780639207891d14610254578063a117527914610272575b600080fd5b610116600480360360208110156100ea57600080fd5b81019080803573ffffffffffffffffffffffffffffffffffffffff169060200190929190505050610919565b604051808215151515815260200191505060405180910390f35b610138610939565b6040518082815260200191505060405180910390f35b61015661093f565b6040518080602001828103825283818151815260200191508051906020019080838360005b8381101561019657808201518184015260208101905061017b565b50505050905090810190601f1680156101c35780820380516001836020036101000a031916815260200191505b509250505060405180910390f35b6101d96109dd565b6040518080602001828103825283818151815260200191508051906020019080838360005b838110156102195780820151818401526020810190506101fe565b50505050905090810190601f1680156102465780820380516001836020036101000a031916815260200191505b509250505060405180910390f35b61025c610a7b565b6040518082815260200191505060405180910390f35b61027a610a81565b6040518080602001828103825283818151815260200191508051906020019080838360005b838110156102ba57808201518184015260208101905061029f565b50505050905090810190601f1680156102e75780820380516001836020036101000a031916815260200191505b509250505060405180910390f35b6103216004803603602081101561030b57600080fd5b8101908080359060200190929190505050610b1f565b604051808781526020018673ffffffffffffffffffffffffffffffffffffffff1673ffffffffffffffffffffffffffffffffffffffff168152602001806020018060200180602001858152602001848103845288818151815260200191508051906020019080838360005b838110156103a757808201518184015260208101905061038c565b50505050905090810190601f1680156103d45780820380516001836020036101000a031916815260200191505b50848103835287818151815260200191508051906020019080838360005b8381101561040d5780820151818401526020810190506103f2565b50505050905090810190601f16801561043a5780820380516001836020036101000a031916815260200191505b50848103825286818151815260200191508051906020019080838360005b83811015610473578082015181840152602081019050610458565b50505050905090810190601f1680156104a05780820380516001836020036101000a031916815260200191505b50995050505050505050505060405180910390f35b61056e600480360360208110156104cb57600080fd5b81019080803590602001906401000000008111156104e857600080fd5b8201836020820111156104fa57600080fd5b8035906020019184600183028401116401000000008311171561051c57600080fd5b91908080601f016020809104026020016040519081016040528093929190818152602001838380828437600081840152601f19601f820116905080830192505050505050509192919290505050610d43565b6040518082815260200191505060405180910390f35b61058c610d71565b6040518082815260200191505060405180910390f35b6105aa610d77565b6040518082815260200191505060405180910390f35b6107a7600480360360608110156105d657600080fd5b81019080803590602001906401000000008111156105f357600080fd5b82018360208201111561060557600080fd5b8035906020019184600183028401116401000000008311171561062757600080fd5b91908080601f016020809104026020016040519081016040528093929190818152602001838380828437600081840152601f19601f8201169050808301925050505050505091929192908035906020019064010000000081111561068a57600080fd5b82018360208201111561069c57600080fd5b803590602001918460018302840111640100000000831117156106be57600080fd5b91908080601f016020809104026020016040519081016040528093929190818152602001838380828437600081840152601f19601f8201169050808301925050505050505091929192908035906020019064010000000081111561072157600080fd5b82018360208201111561073357600080fd5b8035906020019184600183028401116401000000008311171561075557600080fd5b91908080601f016020809104026020016040519081016040528093929190818152602001838380828437600081840152601f19601f820116905080830192505050505050509192919290505050610d7d565b005b6108f9600480360360408110156107bf57600080fd5b81019080803590602001906401000000008111156107dc57600080fd5b8201836020820111156107ee57600080fd5b8035906020019184600183028401116401000000008311171561081057600080fd5b91908080601f016020809104026020016040519081016040528093929190818152602001838380828437600081840152601f19601f8201169050808301925050505050505091929192908035906020019064010000000081111561087357600080fd5b82018360208201111561088557600080fd5b803590602001918460018302840111640100000000831117156108a757600080fd5b91908080601f016020809104026020016040519081016040528093929190818152602001838380828437600081840152601f19601f8201169050808301925050505050505091929192905050506110ae565b005b61090361135e565b6040518082815260200191505060405180910390f35b600a6020528060005260406000206000915054906101000a900460ff1681565b60005481565b60028054600181600116156101000203166002900480601f0160208091040260200160405190810160405280929190818152602001828054600181600116156101000203166002900480156109d55780601f106109aa576101008083540402835291602001916109d5565b820191906000526020600020905b8154815290600101906020018083116109b857829003601f168201915b505050505081565b60038054600181600116156101000203166002900480601f016020809104026020016040519081016040528092919081815260200182805460018160011615610100020316600290048015610a735780601f10610a4857610100808354040283529160200191610a73565b820191906000526020600020905b815481529060010190602001808311610a5657829003601f168201915b505050505081565b60055481565b60048054600181600116156101000203166002900480601f016020809104026020016040519081016040528092919081815260200182805460018160011615610100020316600290048015610b175780601f10610aec57610100808354040283529160200191610b17565b820191906000526020600020905b815481529060010190602001808311610afa57829003601f168201915b505050505081565b60096020528060005260406000206000915090508060000154908060010160009054906101000a900473ffffffffffffffffffffffffffffffffffffffff1690806002018054600181600116156101000203166002900480601f016020809104026020016040519081016040528092919081815260200182805460018160011615610100020316600290048015610bf75780601f10610bcc57610100808354040283529160200191610bf7565b820191906000526020600020905b815481529060010190602001808311610bda57829003601f168201915b505050505090806003018054600181600116156101000203166002900480601f016020809104026020016040519081016040528092919081815260200182805460018160011615610100020316600290048015610c955780601f10610c6a57610100808354040283529160200191610c95565b820191906000526020600020905b815481529060010190602001808311610c7857829003601f168201915b505050505090806004018054600181600116156101000203166002900480601f016020809104026020016040519081016040528092919081815260200182805460018160011615610100020316600290048015610d335780601f10610d0857610100808354040283529160200191610d33565b820191906000526020600020905b815481529060010190602001808311610d1657829003601f168201915b5050505050908060050154905086565b6008818051602081018201805184825260208301602085012081835280955050505050506000915090505481565b60065481565b60015481565b610d93600160055461136490919063ffffffff16565b6005819055506040518060c0016040528060055481526020013373ffffffffffffffffffffffffffffffffffffffff168152602001848152602001838152602001828152602001428152506009600060055481526020019081526020016000206000820151816000015560208201518160010160006101000a81548173ffffffffffffffffffffffffffffffffffffffff021916908373ffffffffffffffffffffffffffffffffffffffff1602179055506040820151816002019080519060200190610e60929190611383565b506060820151816003019080519060200190610e7d929190611383565b506080820151816004019080519060200190610e9a929190611383565b5060a082015181600501559050508260049080519060200190610ebe929190611403565b508160029080519060200190610ed5929190611403565b508060039080519060200190610eec929190611403565b507fe4406e0f5477a4fbbf6f074bb784fb769a164948294afb7fc0067d48dce7d1406005543385858542604051808781526020018673ffffffffffffffffffffffffffffffffffffffff1673ffffffffffffffffffffffffffffffffffffffff168152602001806020018060200180602001858152602001848103845288818151815260200191508051906020019080838360005b83811015610f9c578082015181840152602081019050610f81565b50505050905090810190601f168015610fc95780820380516001836020036101000a031916815260200191505b50848103835287818151815260200191508051906020019080838360005b83811015611002578082015181840152602081019050610fe7565b50505050905090810190601f16801561102f5780820380516001836020036101000a031916815260200191505b50848103825286818151815260200191508051906020019080838360005b8381101561106857808201518184015260208101905061104d565b50505050905090810190601f1680156110955780820380516001836020036101000a031916815260200191505b50995050505050505050505060405180910390a1505050565b6001600a60003373ffffffffffffffffffffffffffffffffffffffff1673ffffffffffffffffffffffffffffffffffffffff16815260200190815260200160002060006101000a81548160ff02191690831515021790555061111c600160075461136490919063ffffffff16565b60078190555060016008836040518082805190602001908083835b6020831061115a5780518252602082019150602081019050602083039250611137565b6001836020036101000a0380198251168184511680821785525050505050509050019150509081526020016040518091039020600082825401925050819055507f930dfbedab06950c7706edda70464c91122595805b1e813bcf766965e4b2577d6007543383856008876040518082805190602001908083835b602083106111f757805182526020820191506020810190506020830392506111d4565b6001836020036101000a03801982511681845116808217855250505050505090500191505090815260200160405180910390205442604051808781526020018673ffffffffffffffffffffffffffffffffffffffff1673ffffffffffffffffffffffffffffffffffffffff1681526020018060200180602001858152602001848152602001838103835287818151815260200191508051906020019080838360005b838110156112b4578082015181840152602081019050611299565b50505050905090810190601f1680156112e15780820380516001836020036101000a031916815260200191505b50838103825286818151815260200191508051906020019080838360005b8381101561131a5780820151818401526020810190506112ff565b50505050905090810190601f1680156113475780820380516001836020036101000a031916815260200191505b509850505050505050505060405180910390a15050565b60075481565b60008082840190508381101561137957600080fd5b8091505092915050565b828054600181600116156101000203166002900490600052602060002090601f016020900481019282601f106113c457805160ff19168380011785556113f2565b828001600101855582156113f2579182015b828111156113f15782518255916020019190600101906113d6565b5b5090506113ff9190611483565b5090565b828054600181600116156101000203166002900490600052602060002090601f016020900481019282601f1061144457805160ff1916838001178555611472565b82800160010185558215611472579182015b82811115611471578251825591602001919060010190611456565b5b50905061147f9190611483565b5090565b6114a591905b808211156114a1576000816000905550600101611489565b5090565b9056fea265627a7a7231582085d5e0ace096c2679a6e9a82a7c4b91fcfb61016ccd09f9e1a9375924374e8a164736f6c63430005100032",
  "source": "pragma solidity ^0.5.0;\r\n\r\nimport \"openzeppelin-solidity/contracts/math/SafeMath.sol\";\r\n\r\ncontract Voting {\r\n   using SafeMath for uint;\r\n\r\n   uint public timePeriod = block.timestamp + 30 seconds;\r\n   uint public timePeriodTest = block.timestamp + 40 seconds;\r\n   string public choice1;\r\n   string public choice2;\r\n   string public poll;\r\n   uint256 public pollCount;\r\n   uint256 public voteCount;\r\n   uint256 public voteId;\r\n   mapping(string => uint) public votes;\r\n   mapping(uint256 => _Poll) public polls;\r\n   mapping(address => bool) public hasVoted;\r\n   // To Do List\r\n   // [x] Users can create a new poll with 2 choices \r\n   // [x] User can vote on one of the choices \r\n   // [x] Set a voting time period (mostly in JS but using blockchain timestamp)\r\n   // [x] At the end of the period, the one with more votes wins\r\n   event PollEvent(\r\n      uint256 id,\r\n      address user,\r\n      string poll,\r\n      string choice1,\r\n      string choice2,\r\n      uint256 timestamp\r\n   );\r\n\r\n   event VoteEvent(\r\n      uint256 id,\r\n      address user,\r\n      string poll,\r\n      string choice,\r\n      uint voteCount,\r\n      uint256 timestamp\r\n   );\r\n\r\n   struct _Poll {\r\n    uint256 id;\r\n    address user;\r\n    string poll;\r\n    string choice1;\r\n    string choice2;\r\n    uint256 timestamp;\r\n  }\r\n\r\n   function createPoll(string memory _poll, string memory _choice1, string memory _choice2) public {\r\n      pollCount = pollCount.add(1);\r\n      polls[pollCount] = _Poll(pollCount, msg.sender, _poll, _choice1, _choice2, now);\r\n      poll = _poll;\r\n      choice1 = _choice1;\r\n      choice2 = _choice2;\r\n      emit PollEvent(pollCount, msg.sender, _poll, _choice1, _choice2, now); \r\n   }\r\n\r\n   function vote(string memory _choice, string memory _poll) public {\r\n      hasVoted[msg.sender] = true;\r\n      voteId = voteId.add(1);\r\n      votes[_choice] += 1;\r\n      emit VoteEvent(voteId, msg.sender, _poll, _choice, votes[_choice], now);\r\n   }\r\n}",
  "sourcePath": "C:/Users/ross4/Desktop/Coding/Blockchain-Code/transparent-voting/src/contracts/Voting.sol",
  "compiler": {
    "name": "solc",
    "version": "0.5.16+commit.9c3226ce.Emscripten.clang"
  },
  "schemaVersion": "3.2.3",
  "updatedAt": "2022-03-15T18:02:45.368Z",
  "networkType": "ethereum",
  "devdoc": {
    "methods": {}
  },
  "userdoc": {
    "methods": {}
  }
}