{
  "contractName": "Voting",
  "abi": [
    {
      "inputs": [
        {
          "internalType": "contract Tvote",
          "name": "_tvote",
          "type": "address"
        }
      ],
      "payable": false,
      "stateMutability": "nonpayable",
      "type": "constructor"
    },
    {
      "anonymous": false,
      "inputs": [
        {
          "indexed": false,
          "internalType": "uint256",
          "name": "id",
          "type": "uint256"
        },
        {
          "indexed": false,
          "internalType": "uint256",
          "name": "pollsCreated",
          "type": "uint256"
        },
        {
          "indexed": false,
          "internalType": "address",
          "name": "user",
          "type": "address"
        },
        {
          "indexed": false,
          "internalType": "string",
          "name": "poll",
          "type": "string"
        },
        {
          "indexed": false,
          "internalType": "string",
          "name": "choice1",
          "type": "string"
        },
        {
          "indexed": false,
          "internalType": "string",
          "name": "choice2",
          "type": "string"
        },
        {
          "indexed": false,
          "internalType": "uint256",
          "name": "timestamp",
          "type": "uint256"
        }
      ],
      "name": "PollEvent",
      "type": "event"
    },
    {
      "anonymous": false,
      "inputs": [
        {
          "indexed": false,
          "internalType": "uint256",
          "name": "voteId",
          "type": "uint256"
        },
        {
          "indexed": false,
          "internalType": "uint256",
          "name": "votesCasted",
          "type": "uint256"
        },
        {
          "indexed": false,
          "internalType": "uint256",
          "name": "pollId",
          "type": "uint256"
        },
        {
          "indexed": false,
          "internalType": "address",
          "name": "user",
          "type": "address"
        },
        {
          "indexed": false,
          "internalType": "string",
          "name": "poll",
          "type": "string"
        },
        {
          "indexed": false,
          "internalType": "string",
          "name": "choice",
          "type": "string"
        },
        {
          "indexed": false,
          "internalType": "uint256",
          "name": "voteCount",
          "type": "uint256"
        },
        {
          "indexed": false,
          "internalType": "uint256",
          "name": "timestamp",
          "type": "uint256"
        }
      ],
      "name": "VoteEvent",
      "type": "event"
    },
    {
      "constant": true,
      "inputs": [
        {
          "internalType": "uint256",
          "name": "",
          "type": "uint256"
        },
        {
          "internalType": "address",
          "name": "",
          "type": "address"
        }
      ],
      "name": "hasVotedOnPoll",
      "outputs": [
        {
          "internalType": "bool",
          "name": "",
          "type": "bool"
        }
      ],
      "payable": false,
      "stateMutability": "view",
      "type": "function"
    },
    {
      "constant": true,
      "inputs": [],
      "name": "owner",
      "outputs": [
        {
          "internalType": "address",
          "name": "",
          "type": "address"
        }
      ],
      "payable": false,
      "stateMutability": "view",
      "type": "function"
    },
    {
      "constant": true,
      "inputs": [],
      "name": "pollCount",
      "outputs": [
        {
          "internalType": "uint256",
          "name": "",
          "type": "uint256"
        }
      ],
      "payable": false,
      "stateMutability": "view",
      "type": "function"
    },
    {
      "constant": true,
      "inputs": [
        {
          "internalType": "uint256",
          "name": "",
          "type": "uint256"
        }
      ],
      "name": "polls",
      "outputs": [
        {
          "internalType": "uint256",
          "name": "id",
          "type": "uint256"
        },
        {
          "internalType": "address",
          "name": "user",
          "type": "address"
        },
        {
          "internalType": "string",
          "name": "poll",
          "type": "string"
        },
        {
          "internalType": "string",
          "name": "choice1",
          "type": "string"
        },
        {
          "internalType": "string",
          "name": "choice2",
          "type": "string"
        },
        {
          "internalType": "uint256",
          "name": "timestamp",
          "type": "uint256"
        }
      ],
      "payable": false,
      "stateMutability": "view",
      "type": "function"
    },
    {
      "constant": true,
      "inputs": [
        {
          "internalType": "address",
          "name": "",
          "type": "address"
        }
      ],
      "name": "totalPollsCreated",
      "outputs": [
        {
          "internalType": "uint256",
          "name": "",
          "type": "uint256"
        }
      ],
      "payable": false,
      "stateMutability": "view",
      "type": "function"
    },
    {
      "constant": true,
      "inputs": [
        {
          "internalType": "address",
          "name": "",
          "type": "address"
        }
      ],
      "name": "totalVotes",
      "outputs": [
        {
          "internalType": "uint256",
          "name": "",
          "type": "uint256"
        }
      ],
      "payable": false,
      "stateMutability": "view",
      "type": "function"
    },
    {
      "constant": true,
      "inputs": [],
      "name": "tvote",
      "outputs": [
        {
          "internalType": "contract Tvote",
          "name": "",
          "type": "address"
        }
      ],
      "payable": false,
      "stateMutability": "view",
      "type": "function"
    },
    {
      "constant": true,
      "inputs": [],
      "name": "voteId",
      "outputs": [
        {
          "internalType": "uint256",
          "name": "",
          "type": "uint256"
        }
      ],
      "payable": false,
      "stateMutability": "view",
      "type": "function"
    },
    {
      "constant": true,
      "inputs": [
        {
          "internalType": "uint256",
          "name": "",
          "type": "uint256"
        },
        {
          "internalType": "string",
          "name": "",
          "type": "string"
        }
      ],
      "name": "votesPerChoicePerPoll",
      "outputs": [
        {
          "internalType": "uint256",
          "name": "",
          "type": "uint256"
        }
      ],
      "payable": false,
      "stateMutability": "view",
      "type": "function"
    },
    {
      "constant": false,
      "inputs": [
        {
          "internalType": "string",
          "name": "_poll",
          "type": "string"
        },
        {
          "internalType": "string",
          "name": "_choice1",
          "type": "string"
        },
        {
          "internalType": "string",
          "name": "_choice2",
          "type": "string"
        }
      ],
      "name": "createPoll",
      "outputs": [],
      "payable": false,
      "stateMutability": "nonpayable",
      "type": "function"
    },
    {
      "constant": false,
      "inputs": [
        {
          "internalType": "string",
          "name": "_choice",
          "type": "string"
        },
        {
          "internalType": "string",
          "name": "_poll",
          "type": "string"
        },
        {
          "internalType": "uint256",
          "name": "_id",
          "type": "uint256"
        }
      ],
      "name": "vote",
      "outputs": [],
      "payable": false,
      "stateMutability": "nonpayable",
      "type": "function"
    },
    {
      "constant": false,
      "inputs": [
        {
          "internalType": "uint256",
          "name": "_winnings",
          "type": "uint256"
        }
      ],
      "name": "claimWinnings",
      "outputs": [],
      "payable": false,
      "stateMutability": "nonpayable",
      "type": "function"
    }
  ],
  "bytecode": "0x608060405234801561001057600080fd5b506040516117723803806117728339818101604052602081101561003357600080fd5b8101908080519060200190929190505050600160008190555080600460006101000a81548173ffffffffffffffffffffffffffffffffffffffff021916908373ffffffffffffffffffffffffffffffffffffffff16021790555033600360006101000a81548173ffffffffffffffffffffffffffffffffffffffff021916908373ffffffffffffffffffffffffffffffffffffffff16021790555050611694806100de6000396000f3fe608060405234801561001057600080fd5b50600436106100b45760003560e01c80639207891d116100715780639207891d14610408578063a4fe662f14610426578063ac2f00741461047e578063e201201c1461063e578063f258a32614610827578063fbb396511461088d576100b4565b806365662c1a146100b9578063677bd9ff14610103578063757c93c014610131578063776c7211146101895780637a4c96ad146102625780638da5cb5b146103be575b600080fd5b6100c16108ab565b604051808273ffffffffffffffffffffffffffffffffffffffff1673ffffffffffffffffffffffffffffffffffffffff16815260200191505060405180910390f35b61012f6004803603602081101561011957600080fd5b81019080803590602001909291905050506108d1565b005b6101736004803603602081101561014757600080fd5b81019080803573ffffffffffffffffffffffffffffffffffffffff1690602001909291905050506109de565b6040518082815260200191505060405180910390f35b61024c6004803603604081101561019f57600080fd5b8101908080359060200190929190803590602001906401000000008111156101c657600080fd5b8201836020820111156101d857600080fd5b803590602001918460018302840111640100000000831117156101fa57600080fd5b91908080601f016020809104026020016040519081016040528093929190818152602001838380828437600081840152601f19601f8201169050808301925050505050505091929192905050506109f6565b6040518082815260200191505060405180910390f35b6103bc6004803603606081101561027857600080fd5b810190808035906020019064010000000081111561029557600080fd5b8201836020820111156102a757600080fd5b803590602001918460018302840111640100000000831117156102c957600080fd5b91908080601f016020809104026020016040519081016040528093929190818152602001838380828437600081840152601f19601f8201169050808301925050505050505091929192908035906020019064010000000081111561032c57600080fd5b82018360208201111561033e57600080fd5b8035906020019184600183028401116401000000008311171561036057600080fd5b91908080601f016020809104026020016040519081016040528093929190818152602001838380828437600081840152601f19601f82011690508083019250505050505050919291929080359060200190929190505050610a31565b005b6103c6610f11565b604051808273ffffffffffffffffffffffffffffffffffffffff1673ffffffffffffffffffffffffffffffffffffffff16815260200191505060405180910390f35b610410610f37565b6040518082815260200191505060405180910390f35b6104686004803603602081101561043c57600080fd5b81019080803573ffffffffffffffffffffffffffffffffffffffff169060200190929190505050610f3d565b6040518082815260200191505060405180910390f35b6104aa6004803603602081101561049457600080fd5b8101908080359060200190929190505050610f55565b604051808781526020018673ffffffffffffffffffffffffffffffffffffffff1673ffffffffffffffffffffffffffffffffffffffff168152602001806020018060200180602001858152602001848103845288818151815260200191508051906020019080838360005b83811015610530578082015181840152602081019050610515565b50505050905090810190601f16801561055d5780820380516001836020036101000a031916815260200191505b50848103835287818151815260200191508051906020019080838360005b8381101561059657808201518184015260208101905061057b565b50505050905090810190601f1680156105c35780820380516001836020036101000a031916815260200191505b50848103825286818151815260200191508051906020019080838360005b838110156105fc5780820151818401526020810190506105e1565b50505050905090810190601f1680156106295780820380516001836020036101000a031916815260200191505b50995050505050505050505060405180910390f35b6108256004803603606081101561065457600080fd5b810190808035906020019064010000000081111561067157600080fd5b82018360208201111561068357600080fd5b803590602001918460018302840111640100000000831117156106a557600080fd5b91908080601f016020809104026020016040519081016040528093929190818152602001838380828437600081840152601f19601f8201169050808301925050505050505091929192908035906020019064010000000081111561070857600080fd5b82018360208201111561071a57600080fd5b8035906020019184600183028401116401000000008311171561073c57600080fd5b91908080601f016020809104026020016040519081016040528093929190818152602001838380828437600081840152601f19601f8201169050808301925050505050505091929192908035906020019064010000000081111561079f57600080fd5b8201836020820111156107b157600080fd5b803590602001918460018302840111640100000000831117156107d357600080fd5b91908080601f016020809104026020016040519081016040528093929190818152602001838380828437600081840152601f19601f820116905080830192505050505050509192919290505050611179565b005b6108736004803603604081101561083d57600080fd5b8101908080359060200190929190803573ffffffffffffffffffffffffffffffffffffffff169060200190929190505050611566565b604051808215151515815260200191505060405180910390f35b610895611595565b6040518082815260200191505060405180910390f35b600460009054906101000a900473ffffffffffffffffffffffffffffffffffffffff1681565b60016000808282540192505081905550600080549050600460009054906101000a900473ffffffffffffffffffffffffffffffffffffffff1673ffffffffffffffffffffffffffffffffffffffff1663a9059cbb33846040518363ffffffff1660e01b8152600401808373ffffffffffffffffffffffffffffffffffffffff1673ffffffffffffffffffffffffffffffffffffffff16815260200182815260200192505050602060405180830381600087803b15801561099057600080fd5b505af11580156109a4573d6000803e3d6000fd5b505050506040513d60208110156109ba57600080fd5b81019080805190602001909291905050505060005481146109da57600080fd5b5050565b60096020528060005260406000206000915090505481565b600660205281600052604060002081805160208101820180518482526020830160208501208183528095505050505050600091509150505481565b60016000808282540192505081905550600080549050600115156007600084815260200190815260200160002060003373ffffffffffffffffffffffffffffffffffffffff1673ffffffffffffffffffffffffffffffffffffffff16815260200190815260200160002060009054906101000a900460ff1615151415610ab657600080fd5b610acc600160025461159b90919063ffffffff16565b60028190555060016007600084815260200190815260200160002060003373ffffffffffffffffffffffffffffffffffffffff1673ffffffffffffffffffffffffffffffffffffffff16815260200190815260200160002060006101000a81548160ff021916908315150217905550610b8e6001600860003373ffffffffffffffffffffffffffffffffffffffff1673ffffffffffffffffffffffffffffffffffffffff1681526020019081526020016000205461159b90919063ffffffff16565b600860003373ffffffffffffffffffffffffffffffffffffffff1673ffffffffffffffffffffffffffffffffffffffff16815260200190815260200160002081905550610c5f600160066000858152602001908152602001600020866040518082805190602001908083835b60208310610c1d5780518252602082019150602081019050602083039250610bfa565b6001836020036101000a03801982511681845116808217855250505050505090500191505090815260200160405180910390205461159b90919063ffffffff16565b60066000848152602001908152602001600020856040518082805190602001908083835b60208310610ca65780518252602082019150602081019050602083039250610c83565b6001836020036101000a0380198251168184511680821785525050505050509050019150509081526020016040518091039020819055507f41d603b36bc4bfc7da19957d0963d974db241812776f2cf2fb951053bd5eaba6600254600860003373ffffffffffffffffffffffffffffffffffffffff1673ffffffffffffffffffffffffffffffffffffffff1681526020019081526020016000205484338789600660008a81526020019081526020016000208b6040518082805190602001908083835b60208310610d8c5780518252602082019150602081019050602083039250610d69565b6001836020036101000a03801982511681845116808217855250505050505090500191505090815260200160405180910390205442604051808981526020018881526020018781526020018673ffffffffffffffffffffffffffffffffffffffff1673ffffffffffffffffffffffffffffffffffffffff1681526020018060200180602001858152602001848152602001838103835287818151815260200191508051906020019080838360005b83811015610e55578082015181840152602081019050610e3a565b50505050905090810190601f168015610e825780820380516001836020036101000a031916815260200191505b50838103825286818151815260200191508051906020019080838360005b83811015610ebb578082015181840152602081019050610ea0565b50505050905090810190601f168015610ee85780820380516001836020036101000a031916815260200191505b509a505050505050505050505060405180910390a16000548114610f0b57600080fd5b50505050565b600360009054906101000a900473ffffffffffffffffffffffffffffffffffffffff1681565b60015481565b60086020528060005260406000206000915090505481565b60056020528060005260406000206000915090508060000154908060010160009054906101000a900473ffffffffffffffffffffffffffffffffffffffff1690806002018054600181600116156101000203166002900480601f01602080910402602001604051908101604052809291908181526020018280546001816001161561010002031660029004801561102d5780601f106110025761010080835404028352916020019161102d565b820191906000526020600020905b81548152906001019060200180831161101057829003601f168201915b505050505090806003018054600181600116156101000203166002900480601f0160208091040260200160405190810160405280929190818152602001828054600181600116156101000203166002900480156110cb5780601f106110a0576101008083540402835291602001916110cb565b820191906000526020600020905b8154815290600101906020018083116110ae57829003601f168201915b505050505090806004018054600181600116156101000203166002900480601f0160208091040260200160405190810160405280929190818152602001828054600181600116156101000203166002900480156111695780601f1061113e57610100808354040283529160200191611169565b820191906000526020600020905b81548152906001019060200180831161114c57829003601f168201915b5050505050908060050154905086565b600160008082825401925050819055506000805490506111a46001805461159b90919063ffffffff16565b6001819055506111fd6001600960003373ffffffffffffffffffffffffffffffffffffffff1673ffffffffffffffffffffffffffffffffffffffff1681526020019081526020016000205461159b90919063ffffffff16565b600960003373ffffffffffffffffffffffffffffffffffffffff1673ffffffffffffffffffffffffffffffffffffffff168152602001908152602001600020819055506040518060c0016040528060015481526020013373ffffffffffffffffffffffffffffffffffffffff168152602001858152602001848152602001838152602001428152506005600060015481526020019081526020016000206000820151816000015560208201518160010160006101000a81548173ffffffffffffffffffffffffffffffffffffffff021916908373ffffffffffffffffffffffffffffffffffffffff16021790555060408201518160020190805190602001906113079291906115ba565b5060608201518160030190805190602001906113249291906115ba565b5060808201518160040190805190602001906113419291906115ba565b5060a082015181600501559050507f1650e09f125abf71b385284ca899bbfa788f6de10ac9c359cfcf70d42c82fb44600154600960003373ffffffffffffffffffffffffffffffffffffffff1673ffffffffffffffffffffffffffffffffffffffff168152602001908152602001600020543387878742604051808881526020018781526020018673ffffffffffffffffffffffffffffffffffffffff1673ffffffffffffffffffffffffffffffffffffffff168152602001806020018060200180602001858152602001848103845288818151815260200191508051906020019080838360005b83811015611444578082015181840152602081019050611429565b50505050905090810190601f1680156114715780820380516001836020036101000a031916815260200191505b50848103835287818151815260200191508051906020019080838360005b838110156114aa57808201518184015260208101905061148f565b50505050905090810190601f1680156114d75780820380516001836020036101000a031916815260200191505b50848103825286818151815260200191508051906020019080838360005b838110156115105780820151818401526020810190506114f5565b50505050905090810190601f16801561153d5780820380516001836020036101000a031916815260200191505b509a505050505050505050505060405180910390a1600054811461156057600080fd5b50505050565b60076020528160005260406000206020528060005260406000206000915091509054906101000a900460ff1681565b60025481565b6000808284019050838110156115b057600080fd5b8091505092915050565b828054600181600116156101000203166002900490600052602060002090601f016020900481019282601f106115fb57805160ff1916838001178555611629565b82800160010185558215611629579182015b8281111561162857825182559160200191906001019061160d565b5b509050611636919061163a565b5090565b61165c91905b80821115611658576000816000905550600101611640565b5090565b9056fea265627a7a72315820f81caed3a4fc434afd527e79dcb693adcbe956c0d4e2b047f16b7030687fe2a064736f6c63430005100032",
  "source": "// SPDX-License-Identifier: MIT\r\npragma solidity ^0.5.0;\r\n\r\nimport \"openzeppelin-solidity/contracts/math/SafeMath.sol\";\r\nimport \"openzeppelin-solidity/contracts/utils/ReentrancyGuard.sol\";\r\nimport \"./Tvote.sol\";\r\n\r\n// To Do List\r\n   // [x] Users can create a new poll with 2 choices \r\n   // [x] User can vote on one of the choices \r\n   // [x] Set a voting time period (JS)\r\n   // [x] At the end of the period, the one with more votes wins (JS)\r\n   // [] If the user guesses the right canidate, they win tokens\r\n   // [] Owner able to remove results\r\n\r\ncontract Voting is ReentrancyGuard {\r\n   using SafeMath for uint;\r\n\r\n   // Variables and Mappings\r\n   uint256 public pollCount;\r\n   uint256 public voteId;\r\n   address public owner;\r\n   Tvote public tvote;\r\n   mapping(uint256 => _Poll) public polls;\r\n   mapping(uint256 => mapping(string => uint)) public votesPerChoicePerPoll;\r\n   mapping(uint256 => mapping(address => bool)) public hasVotedOnPoll;\r\n   mapping(address => uint) public totalVotes;\r\n   mapping(address => uint) public totalPollsCreated;\r\n   \r\n   constructor(Tvote _tvote) public {\r\n    tvote = _tvote;\r\n    owner = msg.sender;\r\n  }\r\n\r\n   // Events and Structs\r\n   event PollEvent(\r\n      uint256 id,\r\n      uint pollsCreated,\r\n      address user,\r\n      string poll,\r\n      string choice1,\r\n      string choice2,\r\n      uint256 timestamp\r\n   );\r\n\r\n    event VoteEvent(\r\n      uint256 voteId,\r\n      uint votesCasted,\r\n      uint256 pollId,\r\n      address user,\r\n      string poll,\r\n      string choice,\r\n      uint voteCount,\r\n      uint256 timestamp\r\n   );\r\n\r\n   struct _Poll {\r\n    uint256 id;\r\n    address user;\r\n    string poll;\r\n    string choice1;\r\n    string choice2;\r\n    uint256 timestamp;\r\n  }\r\n\r\n  \r\n   \r\n\r\n    /** \r\n  * @notice Creates a poll with user inputed category type and two choices\r\n  * @param _poll The name of the poll\r\n  * @param _choice1 The name of the first canidate\r\n  * @param _choice2 The name of the second canidate\r\n  */\r\n  \r\n   function createPoll(string memory _poll, string memory _choice1, string memory _choice2) public nonReentrant {\r\n\r\n      // pollCount is used as a unique ID for each poll and when this function is called it creates a new ID\r\n      pollCount = pollCount.add(1);\r\n\r\n      // Increases Total Polls created Count \r\n      totalPollsCreated[msg.sender] = totalPollsCreated[msg.sender].add(1);\r\n\r\n      // Adds the unique poll to the polls mapping\r\n      polls[pollCount] = _Poll(pollCount, msg.sender, _poll, _choice1, _choice2, now);\r\n\r\n      // Emit PollEvent\r\n      emit PollEvent(pollCount, totalPollsCreated[msg.sender], msg.sender, _poll, _choice1, _choice2, now); \r\n   }\r\n\r\n     /** \r\n  * @notice Casts a vote on a created poll\r\n  * @dev Throws if the address has already voted on a speific catergory\r\n  * @param _choice The canidate chosen to vote on\r\n  * @param _poll The poll being voted on\r\n  * @param _id The poll id to create guarenteed individuallity between polls\r\n  */\r\n\r\n   function vote(string memory _choice, string memory _poll, uint256 _id) public nonReentrant {\r\n\r\n      // requires that the user has not already voted once on a particular poll\r\n      require(hasVotedOnPoll[_id][msg.sender] != true);\r\n      // Counts number of total votes\r\n      voteId = voteId.add(1);\r\n\r\n      // Voter has now voted on the poll and cannot vote on it again\r\n      hasVotedOnPoll[_id][msg.sender] = true;\r\n\r\n      // Increases Total Vote Count \r\n      totalVotes[msg.sender] = totalVotes[msg.sender].add(1);\r\n\r\n      // Counts votes for each choice of a specific poll\r\n      votesPerChoicePerPoll[_id][_choice] = votesPerChoicePerPoll[_id][_choice].add(1);\r\n\r\n      // Emit VoteEvent\r\n      emit VoteEvent(voteId, totalVotes[msg.sender], _id, msg.sender, _poll, _choice, votesPerChoicePerPoll[_id][_choice], now);\r\n   }\r\n\r\n   function claimWinnings(uint _winnings) public nonReentrant {\r\n\r\n\r\n      tvote.transfer(msg.sender, _winnings);\r\n   }\r\n\r\n   // function removeResult(uint256 _id) onlyOwner {\r\n\r\n   // }\r\n}",
  "sourcePath": "C:/Users/ross4/Desktop/Coding/Blockchain-Code/transparent-voting/src/contracts/Voting.sol",
  "compiler": {
    "name": "solc",
    "version": "0.5.16+commit.9c3226ce.Emscripten.clang"
  },
  "schemaVersion": "3.2.3",
  "updatedAt": "2023-01-02T05:09:06.669Z",
  "devdoc": {
    "methods": {
      "createPoll(string,string,string)": {
        "params": {
          "_choice1": "The name of the first canidate",
          "_choice2": "The name of the second canidate",
          "_poll": "The name of the poll"
        }
      },
      "vote(string,string,uint256)": {
        "details": "Throws if the address has already voted on a speific catergory",
        "params": {
          "_choice": "The canidate chosen to vote on",
          "_id": "The poll id to create guarenteed individuallity between polls",
          "_poll": "The poll being voted on"
        }
      }
    }
  },
  "userdoc": {
    "methods": {
      "createPoll(string,string,string)": {
        "notice": "Creates a poll with user inputed category type and two choices"
      },
      "vote(string,string,uint256)": {
        "notice": "Casts a vote on a created poll"
      }
    }
  }
}