{
  "contractName": "Voting",
  "abi": [
    {
      "anonymous": false,
      "inputs": [
        {
          "indexed": false,
          "internalType": "uint256",
          "name": "id",
          "type": "uint256"
        },
        {
          "indexed": false,
          "internalType": "address",
          "name": "user",
          "type": "address"
        },
        {
          "indexed": false,
          "internalType": "string",
          "name": "poll",
          "type": "string"
        },
        {
          "indexed": false,
          "internalType": "string",
          "name": "choice1",
          "type": "string"
        },
        {
          "indexed": false,
          "internalType": "string",
          "name": "choice2",
          "type": "string"
        },
        {
          "indexed": false,
          "internalType": "uint256",
          "name": "timestamp",
          "type": "uint256"
        }
      ],
      "name": "PollEvent",
      "type": "event"
    },
    {
      "anonymous": false,
      "inputs": [
        {
          "indexed": false,
          "internalType": "uint256",
          "name": "voteId",
          "type": "uint256"
        },
        {
          "indexed": false,
          "internalType": "uint256",
          "name": "pollId",
          "type": "uint256"
        },
        {
          "indexed": false,
          "internalType": "address",
          "name": "user",
          "type": "address"
        },
        {
          "indexed": false,
          "internalType": "string",
          "name": "poll",
          "type": "string"
        },
        {
          "indexed": false,
          "internalType": "string",
          "name": "choice",
          "type": "string"
        },
        {
          "indexed": false,
          "internalType": "uint256",
          "name": "voteCount",
          "type": "uint256"
        },
        {
          "indexed": false,
          "internalType": "uint256",
          "name": "timestamp",
          "type": "uint256"
        }
      ],
      "name": "VoteEvent",
      "type": "event"
    },
    {
      "constant": true,
      "inputs": [
        {
          "internalType": "uint256",
          "name": "",
          "type": "uint256"
        },
        {
          "internalType": "address",
          "name": "",
          "type": "address"
        }
      ],
      "name": "hasVotedOnPoll",
      "outputs": [
        {
          "internalType": "bool",
          "name": "",
          "type": "bool"
        }
      ],
      "payable": false,
      "stateMutability": "view",
      "type": "function"
    },
    {
      "constant": true,
      "inputs": [],
      "name": "pollCount",
      "outputs": [
        {
          "internalType": "uint256",
          "name": "",
          "type": "uint256"
        }
      ],
      "payable": false,
      "stateMutability": "view",
      "type": "function"
    },
    {
      "constant": true,
      "inputs": [
        {
          "internalType": "uint256",
          "name": "",
          "type": "uint256"
        }
      ],
      "name": "polls",
      "outputs": [
        {
          "internalType": "uint256",
          "name": "id",
          "type": "uint256"
        },
        {
          "internalType": "address",
          "name": "user",
          "type": "address"
        },
        {
          "internalType": "string",
          "name": "poll",
          "type": "string"
        },
        {
          "internalType": "string",
          "name": "choice1",
          "type": "string"
        },
        {
          "internalType": "string",
          "name": "choice2",
          "type": "string"
        },
        {
          "internalType": "uint256",
          "name": "timestamp",
          "type": "uint256"
        }
      ],
      "payable": false,
      "stateMutability": "view",
      "type": "function"
    },
    {
      "constant": true,
      "inputs": [
        {
          "internalType": "address",
          "name": "",
          "type": "address"
        }
      ],
      "name": "totalPollsCreated",
      "outputs": [
        {
          "internalType": "uint256",
          "name": "",
          "type": "uint256"
        }
      ],
      "payable": false,
      "stateMutability": "view",
      "type": "function"
    },
    {
      "constant": true,
      "inputs": [
        {
          "internalType": "address",
          "name": "",
          "type": "address"
        }
      ],
      "name": "totalVotes",
      "outputs": [
        {
          "internalType": "uint256",
          "name": "",
          "type": "uint256"
        }
      ],
      "payable": false,
      "stateMutability": "view",
      "type": "function"
    },
    {
      "constant": true,
      "inputs": [],
      "name": "voteId",
      "outputs": [
        {
          "internalType": "uint256",
          "name": "",
          "type": "uint256"
        }
      ],
      "payable": false,
      "stateMutability": "view",
      "type": "function"
    },
    {
      "constant": true,
      "inputs": [
        {
          "internalType": "uint256",
          "name": "",
          "type": "uint256"
        },
        {
          "internalType": "string",
          "name": "",
          "type": "string"
        }
      ],
      "name": "votesPerChoicePerPoll",
      "outputs": [
        {
          "internalType": "uint256",
          "name": "",
          "type": "uint256"
        }
      ],
      "payable": false,
      "stateMutability": "view",
      "type": "function"
    },
    {
      "constant": false,
      "inputs": [
        {
          "internalType": "string",
          "name": "_poll",
          "type": "string"
        },
        {
          "internalType": "string",
          "name": "_choice1",
          "type": "string"
        },
        {
          "internalType": "string",
          "name": "_choice2",
          "type": "string"
        }
      ],
      "name": "createPoll",
      "outputs": [],
      "payable": false,
      "stateMutability": "nonpayable",
      "type": "function"
    },
    {
      "constant": false,
      "inputs": [
        {
          "internalType": "string",
          "name": "_choice",
          "type": "string"
        },
        {
          "internalType": "string",
          "name": "_poll",
          "type": "string"
        },
        {
          "internalType": "uint256",
          "name": "_id",
          "type": "uint256"
        }
      ],
      "name": "vote",
      "outputs": [],
      "payable": false,
      "stateMutability": "nonpayable",
      "type": "function"
    }
  ],
  "bytecode": "0x608060405260016000819055506113ca8061001b6000396000f3fe608060405234801561001057600080fd5b50600436106100935760003560e01c8063a4fe662f11610066578063a4fe662f14610343578063ac2f00741461039b578063e201201c1461055b578063f258a32614610744578063fbb39651146107aa57610093565b8063757c93c014610098578063776c7211146100f05780637a4c96ad146101c95780639207891d14610325575b600080fd5b6100da600480360360208110156100ae57600080fd5b81019080803573ffffffffffffffffffffffffffffffffffffffff1690602001909291905050506107c8565b6040518082815260200191505060405180910390f35b6101b36004803603604081101561010657600080fd5b81019080803590602001909291908035906020019064010000000081111561012d57600080fd5b82018360208201111561013f57600080fd5b8035906020019184600183028401116401000000008311171561016157600080fd5b91908080601f016020809104026020016040519081016040528093929190818152602001838380828437600081840152601f19601f8201169050808301925050505050505091929192905050506107e0565b6040518082815260200191505060405180910390f35b610323600480360360608110156101df57600080fd5b81019080803590602001906401000000008111156101fc57600080fd5b82018360208201111561020e57600080fd5b8035906020019184600183028401116401000000008311171561023057600080fd5b91908080601f016020809104026020016040519081016040528093929190818152602001838380828437600081840152601f19601f8201169050808301925050505050505091929192908035906020019064010000000081111561029357600080fd5b8201836020820111156102a557600080fd5b803590602001918460018302840111640100000000831117156102c757600080fd5b91908080601f016020809104026020016040519081016040528093929190818152602001838380828437600081840152601f19601f8201169050808301925050505050505091929192908035906020019092919050505061081b565b005b61032d610cb4565b6040518082815260200191505060405180910390f35b6103856004803603602081101561035957600080fd5b81019080803573ffffffffffffffffffffffffffffffffffffffff169060200190929190505050610cba565b6040518082815260200191505060405180910390f35b6103c7600480360360208110156103b157600080fd5b8101908080359060200190929190505050610cd2565b604051808781526020018673ffffffffffffffffffffffffffffffffffffffff1673ffffffffffffffffffffffffffffffffffffffff168152602001806020018060200180602001858152602001848103845288818151815260200191508051906020019080838360005b8381101561044d578082015181840152602081019050610432565b50505050905090810190601f16801561047a5780820380516001836020036101000a031916815260200191505b50848103835287818151815260200191508051906020019080838360005b838110156104b3578082015181840152602081019050610498565b50505050905090810190601f1680156104e05780820380516001836020036101000a031916815260200191505b50848103825286818151815260200191508051906020019080838360005b838110156105195780820151818401526020810190506104fe565b50505050905090810190601f1680156105465780820380516001836020036101000a031916815260200191505b50995050505050505050505060405180910390f35b6107426004803603606081101561057157600080fd5b810190808035906020019064010000000081111561058e57600080fd5b8201836020820111156105a057600080fd5b803590602001918460018302840111640100000000831117156105c257600080fd5b91908080601f016020809104026020016040519081016040528093929190818152602001838380828437600081840152601f19601f8201169050808301925050505050505091929192908035906020019064010000000081111561062557600080fd5b82018360208201111561063757600080fd5b8035906020019184600183028401116401000000008311171561065957600080fd5b91908080601f016020809104026020016040519081016040528093929190818152602001838380828437600081840152601f19601f820116905080830192505050505050509192919290803590602001906401000000008111156106bc57600080fd5b8201836020820111156106ce57600080fd5b803590602001918460018302840111640100000000831117156106f057600080fd5b91908080601f016020809104026020016040519081016040528093929190818152602001838380828437600081840152601f19601f820116905080830192505050505050509192919290505050610ef6565b005b6107906004803603604081101561075a57600080fd5b8101908080359060200190929190803573ffffffffffffffffffffffffffffffffffffffff16906020019092919050505061129c565b604051808215151515815260200191505060405180910390f35b6107b26112cb565b6040518082815260200191505060405180910390f35b60076020528060005260406000206000915090505481565b600460205281600052604060002081805160208101820180518482526020830160208501208183528095505050505050600091509150505481565b60016000808282540192505081905550600080549050600115156005600084815260200190815260200160002060003373ffffffffffffffffffffffffffffffffffffffff1673ffffffffffffffffffffffffffffffffffffffff16815260200190815260200160002060009054906101000a900460ff16151514156108a057600080fd5b6108b660016002546112d190919063ffffffff16565b60028190555060016005600084815260200190815260200160002060003373ffffffffffffffffffffffffffffffffffffffff1673ffffffffffffffffffffffffffffffffffffffff16815260200190815260200160002060006101000a81548160ff0219169083151502179055506109786001600660003373ffffffffffffffffffffffffffffffffffffffff1673ffffffffffffffffffffffffffffffffffffffff168152602001908152602001600020546112d190919063ffffffff16565b600660003373ffffffffffffffffffffffffffffffffffffffff1673ffffffffffffffffffffffffffffffffffffffff16815260200190815260200160002081905550610a49600160046000858152602001908152602001600020866040518082805190602001908083835b60208310610a0757805182526020820191506020810190506020830392506109e4565b6001836020036101000a0380198251168184511680821785525050505050509050019150509081526020016040518091039020546112d190919063ffffffff16565b60046000848152602001908152602001600020856040518082805190602001908083835b60208310610a905780518252602082019150602081019050602083039250610a6d565b6001836020036101000a0380198251168184511680821785525050505050509050019150509081526020016040518091039020819055507f3d2a1e7374ac726dd7b3aaeddaa7a41b4eaff2d1225e46ed245735f06fd3597160025483338688600460008981526020019081526020016000208a6040518082805190602001908083835b60208310610b365780518252602082019150602081019050602083039250610b13565b6001836020036101000a03801982511681845116808217855250505050505090500191505090815260200160405180910390205442604051808881526020018781526020018673ffffffffffffffffffffffffffffffffffffffff1673ffffffffffffffffffffffffffffffffffffffff1681526020018060200180602001858152602001848152602001838103835287818151815260200191508051906020019080838360005b83811015610bf9578082015181840152602081019050610bde565b50505050905090810190601f168015610c265780820380516001836020036101000a031916815260200191505b50838103825286818151815260200191508051906020019080838360005b83811015610c5f578082015181840152602081019050610c44565b50505050905090810190601f168015610c8c5780820380516001836020036101000a031916815260200191505b50995050505050505050505060405180910390a16000548114610cae57600080fd5b50505050565b60015481565b60066020528060005260406000206000915090505481565b60036020528060005260406000206000915090508060000154908060010160009054906101000a900473ffffffffffffffffffffffffffffffffffffffff1690806002018054600181600116156101000203166002900480601f016020809104026020016040519081016040528092919081815260200182805460018160011615610100020316600290048015610daa5780601f10610d7f57610100808354040283529160200191610daa565b820191906000526020600020905b815481529060010190602001808311610d8d57829003601f168201915b505050505090806003018054600181600116156101000203166002900480601f016020809104026020016040519081016040528092919081815260200182805460018160011615610100020316600290048015610e485780601f10610e1d57610100808354040283529160200191610e48565b820191906000526020600020905b815481529060010190602001808311610e2b57829003601f168201915b505050505090806004018054600181600116156101000203166002900480601f016020809104026020016040519081016040528092919081815260200182805460018160011615610100020316600290048015610ee65780601f10610ebb57610100808354040283529160200191610ee6565b820191906000526020600020905b815481529060010190602001808311610ec957829003601f168201915b5050505050908060050154905086565b60016000808282540192505081905550600080549050610f21600180546112d190919063ffffffff16565b600181905550610f7a6001600760003373ffffffffffffffffffffffffffffffffffffffff1673ffffffffffffffffffffffffffffffffffffffff168152602001908152602001600020546112d190919063ffffffff16565b600760003373ffffffffffffffffffffffffffffffffffffffff1673ffffffffffffffffffffffffffffffffffffffff168152602001908152602001600020819055506040518060c0016040528060015481526020013373ffffffffffffffffffffffffffffffffffffffff168152602001858152602001848152602001838152602001428152506003600060015481526020019081526020016000206000820151816000015560208201518160010160006101000a81548173ffffffffffffffffffffffffffffffffffffffff021916908373ffffffffffffffffffffffffffffffffffffffff16021790555060408201518160020190805190602001906110849291906112f0565b5060608201518160030190805190602001906110a19291906112f0565b5060808201518160040190805190602001906110be9291906112f0565b5060a082015181600501559050507fe4406e0f5477a4fbbf6f074bb784fb769a164948294afb7fc0067d48dce7d1406001543386868642604051808781526020018673ffffffffffffffffffffffffffffffffffffffff1673ffffffffffffffffffffffffffffffffffffffff168152602001806020018060200180602001858152602001848103845288818151815260200191508051906020019080838360005b8381101561117b578082015181840152602081019050611160565b50505050905090810190601f1680156111a85780820380516001836020036101000a031916815260200191505b50848103835287818151815260200191508051906020019080838360005b838110156111e15780820151818401526020810190506111c6565b50505050905090810190601f16801561120e5780820380516001836020036101000a031916815260200191505b50848103825286818151815260200191508051906020019080838360005b8381101561124757808201518184015260208101905061122c565b50505050905090810190601f1680156112745780820380516001836020036101000a031916815260200191505b50995050505050505050505060405180910390a1600054811461129657600080fd5b50505050565b60056020528160005260406000206020528060005260406000206000915091509054906101000a900460ff1681565b60025481565b6000808284019050838110156112e657600080fd5b8091505092915050565b828054600181600116156101000203166002900490600052602060002090601f016020900481019282601f1061133157805160ff191683800117855561135f565b8280016001018555821561135f579182015b8281111561135e578251825591602001919060010190611343565b5b50905061136c9190611370565b5090565b61139291905b8082111561138e576000816000905550600101611376565b5090565b9056fea265627a7a72315820eb03d202509d4de77b465e38bb4ed00e4725869b3e43554e45f79b3c52efbcb764736f6c63430005100032",
  "source": "// SPDX-License-Identifier: MIT\r\npragma solidity ^0.5.0;\r\n\r\nimport \"openzeppelin-solidity/contracts/math/SafeMath.sol\";\r\nimport \"openzeppelin-solidity/contracts/utils/ReentrancyGuard.sol\";\r\n\r\n// To Do List\r\n   // [x] Users can create a new poll with 2 choices \r\n   // [x] User can vote on one of the choices \r\n   // [x] Set a voting time period (JS)\r\n   // [x] At the end of the period, the one with more votes wins (JS)\r\n   // [] If the user guesses the right canidate, they win tokens\r\n   // [] Owner able to remove results\r\n\r\ncontract Voting is ReentrancyGuard {\r\n   using SafeMath for uint;\r\n\r\n   // Variables and Mappings\r\n   uint256 public pollCount;\r\n   uint256 public voteId;\r\n   // address public owner;\r\n   mapping(uint256 => _Poll) public polls;\r\n   mapping(uint256 => mapping(string => uint)) public votesPerChoicePerPoll;\r\n   mapping(uint256 => mapping(address => bool)) public hasVotedOnPoll;\r\n   mapping(address => uint) public totalVotes;\r\n   mapping(address => uint) public totalPollsCreated;\r\n   \r\n//    constructor() public {\r\n//     owner = msg.sender;\r\n//   }\r\n\r\n   // Events and Structs\r\n   event PollEvent(\r\n      uint256 id,\r\n      address user,\r\n      string poll,\r\n      string choice1,\r\n      string choice2,\r\n      uint256 timestamp\r\n   );\r\n\r\n    event VoteEvent(\r\n      uint256 voteId,\r\n      uint256 pollId,\r\n      address user,\r\n      string poll,\r\n      string choice,\r\n      uint voteCount,\r\n      uint256 timestamp\r\n   );\r\n\r\n   struct _Poll {\r\n    uint256 id;\r\n    address user;\r\n    string poll;\r\n    string choice1;\r\n    string choice2;\r\n    uint256 timestamp;\r\n  }\r\n\r\n  \r\n   \r\n\r\n    /** \r\n  * @notice Creates a poll with user inputed category type and two choices\r\n  * @param _poll The name of the poll\r\n  * @param _choice1 The name of the first canidate\r\n  * @param _choice2 The name of the second canidate\r\n  */\r\n  \r\n   function createPoll(string memory _poll, string memory _choice1, string memory _choice2) public nonReentrant {\r\n\r\n      // pollCount is used as a unique ID for each poll and when this function is called it creates a new ID\r\n      pollCount = pollCount.add(1);\r\n\r\n      totalPollsCreated[msg.sender] = totalPollsCreated[msg.sender].add(1);\r\n\r\n\r\n      // Adds the unique poll to the polls mapping\r\n      polls[pollCount] = _Poll(pollCount, msg.sender, _poll, _choice1, _choice2, now);\r\n\r\n      // Emit PollEvent\r\n      emit PollEvent(pollCount, msg.sender, _poll, _choice1, _choice2, now); \r\n   }\r\n\r\n     /** \r\n  * @notice Casts a vote on a created poll\r\n  * @dev Throws if the address has already voted on a speific catergory\r\n  * @param _choice The canidate chosen to vote on\r\n  * @param _poll The poll being voted on\r\n  * @param _id The poll id to create guarenteed individuallity between polls\r\n  */\r\n\r\n   function vote(string memory _choice, string memory _poll, uint256 _id) public nonReentrant {\r\n\r\n      // requires that the user has not already voted once on a particular poll\r\n      require(hasVotedOnPoll[_id][msg.sender] != true);\r\n      // Counts number of total votes\r\n      voteId = voteId.add(1);\r\n\r\n      // Voter has now voted on the poll and cannot vote on it again\r\n      hasVotedOnPoll[_id][msg.sender] = true;\r\n\r\n      totalVotes[msg.sender] = totalVotes[msg.sender].add(1);\r\n\r\n\r\n      // Counts votes for each choice of a specific poll\r\n      votesPerChoicePerPoll[_id][_choice] = votesPerChoicePerPoll[_id][_choice].add(1);\r\n\r\n      // Emit VoteEvent\r\n      emit VoteEvent(voteId, _id, msg.sender, _poll, _choice, votesPerChoicePerPoll[_id][_choice], now);\r\n   }\r\n\r\n   // function claimWinnings(uint _winnings) public nonReentrant {\r\n\r\n\r\n   //    tvote.transfer(msg.sender, _winnings);\r\n   // }\r\n\r\n   // function removeResult(uint256 _id) onlyOwner {\r\n\r\n   // }\r\n}",
  "sourcePath": "C:/Users/ross4/Desktop/Coding/Blockchain-Code/transparent-voting/src/contracts/Voting.sol",
  "compiler": {
    "name": "solc",
    "version": "0.5.16+commit.9c3226ce.Emscripten.clang"
  },
  "schemaVersion": "3.2.3",
  "updatedAt": "2023-01-03T01:10:24.017Z",
  "networkType": "ethereum",
  "devdoc": {
    "methods": {
      "createPoll(string,string,string)": {
        "params": {
          "_choice1": "The name of the first canidate",
          "_choice2": "The name of the second canidate",
          "_poll": "The name of the poll"
        }
      },
      "vote(string,string,uint256)": {
        "details": "Throws if the address has already voted on a speific catergory",
        "params": {
          "_choice": "The canidate chosen to vote on",
          "_id": "The poll id to create guarenteed individuallity between polls",
          "_poll": "The poll being voted on"
        }
      }
    }
  },
  "userdoc": {
    "methods": {
      "createPoll(string,string,string)": {
        "notice": "Creates a poll with user inputed category type and two choices"
      },
      "vote(string,string,uint256)": {
        "notice": "Casts a vote on a created poll"
      }
    }
  }
}