{
  "contractName": "Voting",
  "abi": [
    {
      "anonymous": false,
      "inputs": [
        {
          "indexed": false,
          "internalType": "uint256",
          "name": "id",
          "type": "uint256"
        },
        {
          "indexed": false,
          "internalType": "address",
          "name": "user",
          "type": "address"
        },
        {
          "indexed": false,
          "internalType": "string",
          "name": "poll",
          "type": "string"
        },
        {
          "indexed": false,
          "internalType": "string",
          "name": "choice1",
          "type": "string"
        },
        {
          "indexed": false,
          "internalType": "string",
          "name": "choice2",
          "type": "string"
        },
        {
          "indexed": false,
          "internalType": "uint256",
          "name": "timestamp",
          "type": "uint256"
        }
      ],
      "name": "PollEvent",
      "type": "event"
    },
    {
      "anonymous": false,
      "inputs": [
        {
          "indexed": false,
          "internalType": "uint256",
          "name": "voteId",
          "type": "uint256"
        },
        {
          "indexed": false,
          "internalType": "uint256",
          "name": "pollId",
          "type": "uint256"
        },
        {
          "indexed": false,
          "internalType": "address",
          "name": "user",
          "type": "address"
        },
        {
          "indexed": false,
          "internalType": "string",
          "name": "poll",
          "type": "string"
        },
        {
          "indexed": false,
          "internalType": "string",
          "name": "choice",
          "type": "string"
        },
        {
          "indexed": false,
          "internalType": "uint256",
          "name": "voteCount",
          "type": "uint256"
        },
        {
          "indexed": false,
          "internalType": "uint256",
          "name": "timestamp",
          "type": "uint256"
        }
      ],
      "name": "VoteEvent",
      "type": "event"
    },
    {
      "constant": true,
      "inputs": [
        {
          "internalType": "uint256",
          "name": "",
          "type": "uint256"
        },
        {
          "internalType": "address",
          "name": "",
          "type": "address"
        }
      ],
      "name": "hasVotedOnPoll",
      "outputs": [
        {
          "internalType": "bool",
          "name": "",
          "type": "bool"
        }
      ],
      "payable": false,
      "stateMutability": "view",
      "type": "function"
    },
    {
      "constant": true,
      "inputs": [],
      "name": "pollCount",
      "outputs": [
        {
          "internalType": "uint256",
          "name": "",
          "type": "uint256"
        }
      ],
      "payable": false,
      "stateMutability": "view",
      "type": "function"
    },
    {
      "constant": true,
      "inputs": [
        {
          "internalType": "uint256",
          "name": "",
          "type": "uint256"
        }
      ],
      "name": "polls",
      "outputs": [
        {
          "internalType": "uint256",
          "name": "id",
          "type": "uint256"
        },
        {
          "internalType": "address",
          "name": "user",
          "type": "address"
        },
        {
          "internalType": "string",
          "name": "poll",
          "type": "string"
        },
        {
          "internalType": "string",
          "name": "choice1",
          "type": "string"
        },
        {
          "internalType": "string",
          "name": "choice2",
          "type": "string"
        },
        {
          "internalType": "uint256",
          "name": "timestamp",
          "type": "uint256"
        }
      ],
      "payable": false,
      "stateMutability": "view",
      "type": "function"
    },
    {
      "constant": true,
      "inputs": [],
      "name": "voteId",
      "outputs": [
        {
          "internalType": "uint256",
          "name": "",
          "type": "uint256"
        }
      ],
      "payable": false,
      "stateMutability": "view",
      "type": "function"
    },
    {
      "constant": true,
      "inputs": [
        {
          "internalType": "uint256",
          "name": "",
          "type": "uint256"
        },
        {
          "internalType": "string",
          "name": "",
          "type": "string"
        }
      ],
      "name": "votesPerChoicePerPoll",
      "outputs": [
        {
          "internalType": "uint256",
          "name": "",
          "type": "uint256"
        }
      ],
      "payable": false,
      "stateMutability": "view",
      "type": "function"
    },
    {
      "constant": false,
      "inputs": [
        {
          "internalType": "string",
          "name": "_poll",
          "type": "string"
        },
        {
          "internalType": "string",
          "name": "_choice1",
          "type": "string"
        },
        {
          "internalType": "string",
          "name": "_choice2",
          "type": "string"
        }
      ],
      "name": "createPoll",
      "outputs": [],
      "payable": false,
      "stateMutability": "nonpayable",
      "type": "function"
    },
    {
      "constant": false,
      "inputs": [
        {
          "internalType": "string",
          "name": "_choice",
          "type": "string"
        },
        {
          "internalType": "string",
          "name": "_poll",
          "type": "string"
        },
        {
          "internalType": "uint256",
          "name": "_id",
          "type": "uint256"
        }
      ],
      "name": "vote",
      "outputs": [],
      "payable": false,
      "stateMutability": "nonpayable",
      "type": "function"
    }
  ],
  "bytecode": "0x608060405234801561001057600080fd5b5061115d806100206000396000f3fe608060405234801561001057600080fd5b506004361061007d5760003560e01c8063ac2f00741161005b578063ac2f0074146102d5578063e201201c14610495578063f258a3261461067e578063fbb39651146106e45761007d565b8063776c7211146100825780637a4c96ad1461015b5780639207891d146102b7575b600080fd5b6101456004803603604081101561009857600080fd5b8101908080359060200190929190803590602001906401000000008111156100bf57600080fd5b8201836020820111156100d157600080fd5b803590602001918460018302840111640100000000831117156100f357600080fd5b91908080601f016020809104026020016040519081016040528093929190818152602001838380828437600081840152601f19601f820116905080830192505050505050509192919290505050610702565b6040518082815260200191505060405180910390f35b6102b56004803603606081101561017157600080fd5b810190808035906020019064010000000081111561018e57600080fd5b8201836020820111156101a057600080fd5b803590602001918460018302840111640100000000831117156101c257600080fd5b91908080601f016020809104026020016040519081016040528093929190818152602001838380828437600081840152601f19601f8201169050808301925050505050505091929192908035906020019064010000000081111561022557600080fd5b82018360208201111561023757600080fd5b8035906020019184600183028401116401000000008311171561025957600080fd5b91908080601f016020809104026020016040519081016040528093929190818152602001838380828437600081840152601f19601f8201169050808301925050505050505091929192908035906020019092919050505061073d565b005b6102bf610b1a565b6040518082815260200191505060405180910390f35b610301600480360360208110156102eb57600080fd5b8101908080359060200190929190505050610b20565b604051808781526020018673ffffffffffffffffffffffffffffffffffffffff1673ffffffffffffffffffffffffffffffffffffffff168152602001806020018060200180602001858152602001848103845288818151815260200191508051906020019080838360005b8381101561038757808201518184015260208101905061036c565b50505050905090810190601f1680156103b45780820380516001836020036101000a031916815260200191505b50848103835287818151815260200191508051906020019080838360005b838110156103ed5780820151818401526020810190506103d2565b50505050905090810190601f16801561041a5780820380516001836020036101000a031916815260200191505b50848103825286818151815260200191508051906020019080838360005b83811015610453578082015181840152602081019050610438565b50505050905090810190601f1680156104805780820380516001836020036101000a031916815260200191505b50995050505050505050505060405180910390f35b61067c600480360360608110156104ab57600080fd5b81019080803590602001906401000000008111156104c857600080fd5b8201836020820111156104da57600080fd5b803590602001918460018302840111640100000000831117156104fc57600080fd5b91908080601f016020809104026020016040519081016040528093929190818152602001838380828437600081840152601f19601f8201169050808301925050505050505091929192908035906020019064010000000081111561055f57600080fd5b82018360208201111561057157600080fd5b8035906020019184600183028401116401000000008311171561059357600080fd5b91908080601f016020809104026020016040519081016040528093929190818152602001838380828437600081840152601f19601f820116905080830192505050505050509192919290803590602001906401000000008111156105f657600080fd5b82018360208201111561060857600080fd5b8035906020019184600183028401116401000000008311171561062a57600080fd5b91908080601f016020809104026020016040519081016040528093929190818152602001838380828437600081840152601f19601f820116905080830192505050505050509192919290505050610d44565b005b6106ca6004803603604081101561069457600080fd5b8101908080359060200190929190803573ffffffffffffffffffffffffffffffffffffffff16906020019092919050505061102f565b604051808215151515815260200191505060405180910390f35b6106ec61105e565b6040518082815260200191505060405180910390f35b600360205281600052604060002081805160208101820180518482526020830160208501208183528095505050505050600091509150505481565b600115156004600083815260200190815260200160002060003373ffffffffffffffffffffffffffffffffffffffff1673ffffffffffffffffffffffffffffffffffffffff16815260200190815260200160002060009054906101000a900460ff16151514156107ac57600080fd5b6107c16001805461106490919063ffffffff16565b60018190555060016004600083815260200190815260200160002060003373ffffffffffffffffffffffffffffffffffffffff1673ffffffffffffffffffffffffffffffffffffffff16815260200190815260200160002060006101000a81548160ff0219169083151502179055506108be600160036000848152602001908152602001600020856040518082805190602001908083835b6020831061087c5780518252602082019150602081019050602083039250610859565b6001836020036101000a03801982511681845116808217855250505050505090500191505090815260200160405180910390205461106490919063ffffffff16565b60036000838152602001908152602001600020846040518082805190602001908083835b6020831061090557805182526020820191506020810190506020830392506108e2565b6001836020036101000a0380198251168184511680821785525050505050509050019150509081526020016040518091039020819055507f3d2a1e7374ac726dd7b3aaeddaa7a41b4eaff2d1225e46ed245735f06fd359716001548233858760036000888152602001908152602001600020896040518082805190602001908083835b602083106109ab5780518252602082019150602081019050602083039250610988565b6001836020036101000a03801982511681845116808217855250505050505090500191505090815260200160405180910390205442604051808881526020018781526020018673ffffffffffffffffffffffffffffffffffffffff1673ffffffffffffffffffffffffffffffffffffffff1681526020018060200180602001858152602001848152602001838103835287818151815260200191508051906020019080838360005b83811015610a6e578082015181840152602081019050610a53565b50505050905090810190601f168015610a9b5780820380516001836020036101000a031916815260200191505b50838103825286818151815260200191508051906020019080838360005b83811015610ad4578082015181840152602081019050610ab9565b50505050905090810190601f168015610b015780820380516001836020036101000a031916815260200191505b50995050505050505050505060405180910390a1505050565b60005481565b60026020528060005260406000206000915090508060000154908060010160009054906101000a900473ffffffffffffffffffffffffffffffffffffffff1690806002018054600181600116156101000203166002900480601f016020809104026020016040519081016040528092919081815260200182805460018160011615610100020316600290048015610bf85780601f10610bcd57610100808354040283529160200191610bf8565b820191906000526020600020905b815481529060010190602001808311610bdb57829003601f168201915b505050505090806003018054600181600116156101000203166002900480601f016020809104026020016040519081016040528092919081815260200182805460018160011615610100020316600290048015610c965780601f10610c6b57610100808354040283529160200191610c96565b820191906000526020600020905b815481529060010190602001808311610c7957829003601f168201915b505050505090806004018054600181600116156101000203166002900480601f016020809104026020016040519081016040528092919081815260200182805460018160011615610100020316600290048015610d345780601f10610d0957610100808354040283529160200191610d34565b820191906000526020600020905b815481529060010190602001808311610d1757829003601f168201915b5050505050908060050154905086565b610d5a600160005461106490919063ffffffff16565b6000819055506040518060c0016040528060005481526020013373ffffffffffffffffffffffffffffffffffffffff1681526020018481526020018381526020018281526020014281525060026000805481526020019081526020016000206000820151816000015560208201518160010160006101000a81548173ffffffffffffffffffffffffffffffffffffffff021916908373ffffffffffffffffffffffffffffffffffffffff1602179055506040820151816002019080519060200190610e26929190611083565b506060820151816003019080519060200190610e43929190611083565b506080820151816004019080519060200190610e60929190611083565b5060a082015181600501559050507fe4406e0f5477a4fbbf6f074bb784fb769a164948294afb7fc0067d48dce7d1406000543385858542604051808781526020018673ffffffffffffffffffffffffffffffffffffffff1673ffffffffffffffffffffffffffffffffffffffff168152602001806020018060200180602001858152602001848103845288818151815260200191508051906020019080838360005b83811015610f1d578082015181840152602081019050610f02565b50505050905090810190601f168015610f4a5780820380516001836020036101000a031916815260200191505b50848103835287818151815260200191508051906020019080838360005b83811015610f83578082015181840152602081019050610f68565b50505050905090810190601f168015610fb05780820380516001836020036101000a031916815260200191505b50848103825286818151815260200191508051906020019080838360005b83811015610fe9578082015181840152602081019050610fce565b50505050905090810190601f1680156110165780820380516001836020036101000a031916815260200191505b50995050505050505050505060405180910390a1505050565b60046020528160005260406000206020528060005260406000206000915091509054906101000a900460ff1681565b60015481565b60008082840190508381101561107957600080fd5b8091505092915050565b828054600181600116156101000203166002900490600052602060002090601f016020900481019282601f106110c457805160ff19168380011785556110f2565b828001600101855582156110f2579182015b828111156110f15782518255916020019190600101906110d6565b5b5090506110ff9190611103565b5090565b61112591905b80821115611121576000816000905550600101611109565b5090565b9056fea265627a7a723158204e962005a20c86fd435cfbbbb7ed3434d1b13e71b8cba71e5ffb71e87934bbf764736f6c63430005100032",
  "source": "pragma solidity ^0.5.0;\r\n\r\nimport \"openzeppelin-solidity/contracts/math/SafeMath.sol\";\r\n\r\n// To Do List\r\n   // [x] Users can create a new poll with 2 choices \r\n   // [x] User can vote on one of the choices \r\n   // [x] Set a voting time period (JS)\r\n   // [x] At the end of the period, the one with more votes wins (JS)\r\n\r\ncontract Voting {\r\n   using SafeMath for uint;\r\n\r\n   // Variables and Mappings\r\n   uint256 public pollCount;\r\n   uint256 public voteId;\r\n   mapping(uint256 => _Poll) public polls;\r\n   mapping(uint256 => mapping(string => uint)) public votesPerChoicePerPoll;\r\n   mapping(uint256 => mapping(address => bool)) public hasVotedOnPoll;\r\n   \r\n   // Events and Structs\r\n   event PollEvent(\r\n      uint256 id,\r\n      address user,\r\n      string poll,\r\n      string choice1,\r\n      string choice2,\r\n      uint256 timestamp\r\n   );\r\n\r\n   struct _Poll {\r\n    uint256 id;\r\n    address user;\r\n    string poll;\r\n    string choice1;\r\n    string choice2;\r\n    uint256 timestamp;\r\n  }\r\n\r\n   event VoteEvent(\r\n      uint256 voteId,\r\n      uint256 pollId,\r\n      address user,\r\n      string poll,\r\n      string choice,\r\n      uint voteCount,\r\n      uint256 timestamp\r\n   );\r\n   \r\n\r\n\r\n   // Creates a poll with user inputed category type and two choices, poll gets stored in the event stream\r\n   function createPoll(string memory _poll, string memory _choice1, string memory _choice2) public {\r\n\r\n      // pollCount is used as a unique ID for each poll and when this function is called it creates a new ID\r\n      pollCount = pollCount.add(1);\r\n\r\n      // Adds the unique poll to the polls mapping\r\n      polls[pollCount] = _Poll(pollCount, msg.sender, _poll, _choice1, _choice2, now);\r\n\r\n      // Emit PollEvent\r\n      emit PollEvent(pollCount, msg.sender, _poll, _choice1, _choice2, now); \r\n   }\r\n\r\n   // User casts a vote by clicking a button on the UI and the vote gets stored in the event stream\r\n   function vote(string memory _choice, string memory _poll, uint256 _id) public {\r\n\r\n      // requires that the user has not already voted once on a particular poll\r\n      require(hasVotedOnPoll[_id][msg.sender] != true);\r\n      // Counts number of total votes\r\n      voteId = voteId.add(1);\r\n\r\n      // Voter has now voted on the poll and cannot vote on it again\r\n      hasVotedOnPoll[_id][msg.sender] = true;\r\n\r\n      // Counts votes for each choice of a specific poll\r\n      votesPerChoicePerPoll[_id][_choice] = votesPerChoicePerPoll[_id][_choice].add(1);\r\n\r\n      // Emit VoteEvent\r\n      emit VoteEvent(voteId, _id, msg.sender, _poll, _choice, votesPerChoicePerPoll[_id][_choice], now);\r\n   }\r\n}",
  "sourcePath": "C:/Users/ross4/Desktop/Coding/Blockchain-Code/transparent-voting/src/contracts/Voting.sol",
  "compiler": {
    "name": "solc",
    "version": "0.5.16+commit.9c3226ce.Emscripten.clang"
  },
  "schemaVersion": "3.2.3",
  "updatedAt": "2022-03-16T20:06:39.939Z",
  "networkType": "ethereum",
  "devdoc": {
    "methods": {}
  },
  "userdoc": {
    "methods": {}
  }
}