{
  "contractName": "Voting",
  "abi": [
    {
      "anonymous": false,
      "inputs": [
        {
          "indexed": false,
          "internalType": "uint256",
          "name": "id",
          "type": "uint256"
        },
        {
          "indexed": false,
          "internalType": "address",
          "name": "user",
          "type": "address"
        },
        {
          "indexed": false,
          "internalType": "string",
          "name": "poll",
          "type": "string"
        },
        {
          "indexed": false,
          "internalType": "string",
          "name": "choice1",
          "type": "string"
        },
        {
          "indexed": false,
          "internalType": "string",
          "name": "choice2",
          "type": "string"
        },
        {
          "indexed": false,
          "internalType": "uint256",
          "name": "timestamp",
          "type": "uint256"
        }
      ],
      "name": "PollEvent",
      "type": "event"
    },
    {
      "anonymous": false,
      "inputs": [
        {
          "indexed": false,
          "internalType": "uint256",
          "name": "id",
          "type": "uint256"
        },
        {
          "indexed": false,
          "internalType": "address",
          "name": "user",
          "type": "address"
        },
        {
          "indexed": false,
          "internalType": "string",
          "name": "poll",
          "type": "string"
        },
        {
          "indexed": false,
          "internalType": "string",
          "name": "choice",
          "type": "string"
        },
        {
          "indexed": false,
          "internalType": "uint256",
          "name": "voteCount",
          "type": "uint256"
        },
        {
          "indexed": false,
          "internalType": "uint256",
          "name": "timestamp",
          "type": "uint256"
        }
      ],
      "name": "VoteEvent",
      "type": "event"
    },
    {
      "constant": true,
      "inputs": [],
      "name": "choice1",
      "outputs": [
        {
          "internalType": "string",
          "name": "",
          "type": "string"
        }
      ],
      "payable": false,
      "stateMutability": "view",
      "type": "function"
    },
    {
      "constant": true,
      "inputs": [],
      "name": "choice2",
      "outputs": [
        {
          "internalType": "string",
          "name": "",
          "type": "string"
        }
      ],
      "payable": false,
      "stateMutability": "view",
      "type": "function"
    },
    {
      "constant": true,
      "inputs": [],
      "name": "poll",
      "outputs": [
        {
          "internalType": "string",
          "name": "",
          "type": "string"
        }
      ],
      "payable": false,
      "stateMutability": "view",
      "type": "function"
    },
    {
      "constant": true,
      "inputs": [],
      "name": "pollCount",
      "outputs": [
        {
          "internalType": "uint256",
          "name": "",
          "type": "uint256"
        }
      ],
      "payable": false,
      "stateMutability": "view",
      "type": "function"
    },
    {
      "constant": true,
      "inputs": [
        {
          "internalType": "uint256",
          "name": "",
          "type": "uint256"
        }
      ],
      "name": "polls",
      "outputs": [
        {
          "internalType": "uint256",
          "name": "id",
          "type": "uint256"
        },
        {
          "internalType": "address",
          "name": "user",
          "type": "address"
        },
        {
          "internalType": "string",
          "name": "poll",
          "type": "string"
        },
        {
          "internalType": "string",
          "name": "choice1",
          "type": "string"
        },
        {
          "internalType": "string",
          "name": "choice2",
          "type": "string"
        },
        {
          "internalType": "uint256",
          "name": "timestamp",
          "type": "uint256"
        }
      ],
      "payable": false,
      "stateMutability": "view",
      "type": "function"
    },
    {
      "constant": true,
      "inputs": [],
      "name": "timePeriod",
      "outputs": [
        {
          "internalType": "uint256",
          "name": "",
          "type": "uint256"
        }
      ],
      "payable": false,
      "stateMutability": "view",
      "type": "function"
    },
    {
      "constant": true,
      "inputs": [],
      "name": "timePeriodTest",
      "outputs": [
        {
          "internalType": "uint256",
          "name": "",
          "type": "uint256"
        }
      ],
      "payable": false,
      "stateMutability": "view",
      "type": "function"
    },
    {
      "constant": true,
      "inputs": [],
      "name": "voteCount",
      "outputs": [
        {
          "internalType": "uint256",
          "name": "",
          "type": "uint256"
        }
      ],
      "payable": false,
      "stateMutability": "view",
      "type": "function"
    },
    {
      "constant": true,
      "inputs": [],
      "name": "voteId",
      "outputs": [
        {
          "internalType": "uint256",
          "name": "",
          "type": "uint256"
        }
      ],
      "payable": false,
      "stateMutability": "view",
      "type": "function"
    },
    {
      "constant": true,
      "inputs": [
        {
          "internalType": "string",
          "name": "",
          "type": "string"
        }
      ],
      "name": "votes",
      "outputs": [
        {
          "internalType": "uint256",
          "name": "",
          "type": "uint256"
        }
      ],
      "payable": false,
      "stateMutability": "view",
      "type": "function"
    },
    {
      "constant": false,
      "inputs": [
        {
          "internalType": "string",
          "name": "_poll",
          "type": "string"
        },
        {
          "internalType": "string",
          "name": "_choice1",
          "type": "string"
        },
        {
          "internalType": "string",
          "name": "_choice2",
          "type": "string"
        }
      ],
      "name": "createPoll",
      "outputs": [],
      "payable": false,
      "stateMutability": "nonpayable",
      "type": "function"
    },
    {
      "constant": false,
      "inputs": [
        {
          "internalType": "string",
          "name": "_choice",
          "type": "string"
        },
        {
          "internalType": "string",
          "name": "_poll",
          "type": "string"
        }
      ],
      "name": "vote",
      "outputs": [],
      "payable": false,
      "stateMutability": "nonpayable",
      "type": "function"
    }
  ],
  "bytecode": "0x6080604052601e42016000556028420160015534801561001e57600080fd5b506113ee8061002e6000396000f3fe608060405234801561001057600080fd5b50600436106100b45760003560e01c8063b99ef1fa11610071578063b99ef1fa1461043e578063c63840711461050d578063df3c52f31461052b578063e201201c14610549578063e8d5940d14610732578063fbb3965114610884576100b4565b80633e79d1e1146100b957806349e811c5146100d757806387cfa5bf1461015a5780639207891d146101dd578063a1175279146101fb578063ac2f00741461027e575b600080fd5b6100c16108a2565b6040518082815260200191505060405180910390f35b6100df6108a8565b6040518080602001828103825283818151815260200191508051906020019080838360005b8381101561011f578082015181840152602081019050610104565b50505050905090810190601f16801561014c5780820380516001836020036101000a031916815260200191505b509250505060405180910390f35b610162610946565b6040518080602001828103825283818151815260200191508051906020019080838360005b838110156101a2578082015181840152602081019050610187565b50505050905090810190601f1680156101cf5780820380516001836020036101000a031916815260200191505b509250505060405180910390f35b6101e56109e4565b6040518082815260200191505060405180910390f35b6102036109ea565b6040518080602001828103825283818151815260200191508051906020019080838360005b83811015610243578082015181840152602081019050610228565b50505050905090810190601f1680156102705780820380516001836020036101000a031916815260200191505b509250505060405180910390f35b6102aa6004803603602081101561029457600080fd5b8101908080359060200190929190505050610a88565b604051808781526020018673ffffffffffffffffffffffffffffffffffffffff1673ffffffffffffffffffffffffffffffffffffffff168152602001806020018060200180602001858152602001848103845288818151815260200191508051906020019080838360005b83811015610330578082015181840152602081019050610315565b50505050905090810190601f16801561035d5780820380516001836020036101000a031916815260200191505b50848103835287818151815260200191508051906020019080838360005b8381101561039657808201518184015260208101905061037b565b50505050905090810190601f1680156103c35780820380516001836020036101000a031916815260200191505b50848103825286818151815260200191508051906020019080838360005b838110156103fc5780820151818401526020810190506103e1565b50505050905090810190601f1680156104295780820380516001836020036101000a031916815260200191505b50995050505050505050505060405180910390f35b6104f76004803603602081101561045457600080fd5b810190808035906020019064010000000081111561047157600080fd5b82018360208201111561048357600080fd5b803590602001918460018302840111640100000000831117156104a557600080fd5b91908080601f016020809104026020016040519081016040528093929190818152602001838380828437600081840152601f19601f820116905080830192505050505050509192919290505050610cac565b6040518082815260200191505060405180910390f35b610515610cda565b6040518082815260200191505060405180910390f35b610533610ce0565b6040518082815260200191505060405180910390f35b6107306004803603606081101561055f57600080fd5b810190808035906020019064010000000081111561057c57600080fd5b82018360208201111561058e57600080fd5b803590602001918460018302840111640100000000831117156105b057600080fd5b91908080601f016020809104026020016040519081016040528093929190818152602001838380828437600081840152601f19601f8201169050808301925050505050505091929192908035906020019064010000000081111561061357600080fd5b82018360208201111561062557600080fd5b8035906020019184600183028401116401000000008311171561064757600080fd5b91908080601f016020809104026020016040519081016040528093929190818152602001838380828437600081840152601f19601f820116905080830192505050505050509192919290803590602001906401000000008111156106aa57600080fd5b8201836020820111156106bc57600080fd5b803590602001918460018302840111640100000000831117156106de57600080fd5b91908080601f016020809104026020016040519081016040528093929190818152602001838380828437600081840152601f19601f820116905080830192505050505050509192919290505050610ce6565b005b6108826004803603604081101561074857600080fd5b810190808035906020019064010000000081111561076557600080fd5b82018360208201111561077757600080fd5b8035906020019184600183028401116401000000008311171561079957600080fd5b91908080601f016020809104026020016040519081016040528093929190818152602001838380828437600081840152601f19601f820116905080830192505050505050509192919290803590602001906401000000008111156107fc57600080fd5b82018360208201111561080e57600080fd5b8035906020019184600183028401116401000000008311171561083057600080fd5b91908080601f016020809104026020016040519081016040528093929190818152602001838380828437600081840152601f19601f820116905080830192505050505050509192919290505050611017565b005b61088c61126f565b6040518082815260200191505060405180910390f35b60005481565b60028054600181600116156101000203166002900480601f01602080910402602001604051908101604052809291908181526020018280546001816001161561010002031660029004801561093e5780601f106109135761010080835404028352916020019161093e565b820191906000526020600020905b81548152906001019060200180831161092157829003601f168201915b505050505081565b60038054600181600116156101000203166002900480601f0160208091040260200160405190810160405280929190818152602001828054600181600116156101000203166002900480156109dc5780601f106109b1576101008083540402835291602001916109dc565b820191906000526020600020905b8154815290600101906020018083116109bf57829003601f168201915b505050505081565b60055481565b60048054600181600116156101000203166002900480601f016020809104026020016040519081016040528092919081815260200182805460018160011615610100020316600290048015610a805780601f10610a5557610100808354040283529160200191610a80565b820191906000526020600020905b815481529060010190602001808311610a6357829003601f168201915b505050505081565b60096020528060005260406000206000915090508060000154908060010160009054906101000a900473ffffffffffffffffffffffffffffffffffffffff1690806002018054600181600116156101000203166002900480601f016020809104026020016040519081016040528092919081815260200182805460018160011615610100020316600290048015610b605780601f10610b3557610100808354040283529160200191610b60565b820191906000526020600020905b815481529060010190602001808311610b4357829003601f168201915b505050505090806003018054600181600116156101000203166002900480601f016020809104026020016040519081016040528092919081815260200182805460018160011615610100020316600290048015610bfe5780601f10610bd357610100808354040283529160200191610bfe565b820191906000526020600020905b815481529060010190602001808311610be157829003601f168201915b505050505090806004018054600181600116156101000203166002900480601f016020809104026020016040519081016040528092919081815260200182805460018160011615610100020316600290048015610c9c5780601f10610c7157610100808354040283529160200191610c9c565b820191906000526020600020905b815481529060010190602001808311610c7f57829003601f168201915b5050505050908060050154905086565b6008818051602081018201805184825260208301602085012081835280955050505050506000915090505481565b60065481565b60015481565b610cfc600160055461127590919063ffffffff16565b6005819055506040518060c0016040528060055481526020013373ffffffffffffffffffffffffffffffffffffffff168152602001848152602001838152602001828152602001428152506009600060055481526020019081526020016000206000820151816000015560208201518160010160006101000a81548173ffffffffffffffffffffffffffffffffffffffff021916908373ffffffffffffffffffffffffffffffffffffffff1602179055506040820151816002019080519060200190610dc9929190611294565b506060820151816003019080519060200190610de6929190611294565b506080820151816004019080519060200190610e03929190611294565b5060a082015181600501559050508260049080519060200190610e27929190611314565b508160029080519060200190610e3e929190611314565b508060039080519060200190610e55929190611314565b507fe4406e0f5477a4fbbf6f074bb784fb769a164948294afb7fc0067d48dce7d1406005543385858542604051808781526020018673ffffffffffffffffffffffffffffffffffffffff1673ffffffffffffffffffffffffffffffffffffffff168152602001806020018060200180602001858152602001848103845288818151815260200191508051906020019080838360005b83811015610f05578082015181840152602081019050610eea565b50505050905090810190601f168015610f325780820380516001836020036101000a031916815260200191505b50848103835287818151815260200191508051906020019080838360005b83811015610f6b578082015181840152602081019050610f50565b50505050905090810190601f168015610f985780820380516001836020036101000a031916815260200191505b50848103825286818151815260200191508051906020019080838360005b83811015610fd1578082015181840152602081019050610fb6565b50505050905090810190601f168015610ffe5780820380516001836020036101000a031916815260200191505b50995050505050505050505060405180910390a1505050565b61102d600160075461127590919063ffffffff16565b60078190555060016008836040518082805190602001908083835b6020831061106b5780518252602082019150602081019050602083039250611048565b6001836020036101000a0380198251168184511680821785525050505050509050019150509081526020016040518091039020600082825401925050819055507f930dfbedab06950c7706edda70464c91122595805b1e813bcf766965e4b2577d6007543383856008876040518082805190602001908083835b6020831061110857805182526020820191506020810190506020830392506110e5565b6001836020036101000a03801982511681845116808217855250505050505090500191505090815260200160405180910390205442604051808781526020018673ffffffffffffffffffffffffffffffffffffffff1673ffffffffffffffffffffffffffffffffffffffff1681526020018060200180602001858152602001848152602001838103835287818151815260200191508051906020019080838360005b838110156111c55780820151818401526020810190506111aa565b50505050905090810190601f1680156111f25780820380516001836020036101000a031916815260200191505b50838103825286818151815260200191508051906020019080838360005b8381101561122b578082015181840152602081019050611210565b50505050905090810190601f1680156112585780820380516001836020036101000a031916815260200191505b509850505050505050505060405180910390a15050565b60075481565b60008082840190508381101561128a57600080fd5b8091505092915050565b828054600181600116156101000203166002900490600052602060002090601f016020900481019282601f106112d557805160ff1916838001178555611303565b82800160010185558215611303579182015b828111156113025782518255916020019190600101906112e7565b5b5090506113109190611394565b5090565b828054600181600116156101000203166002900490600052602060002090601f016020900481019282601f1061135557805160ff1916838001178555611383565b82800160010185558215611383579182015b82811115611382578251825591602001919060010190611367565b5b5090506113909190611394565b5090565b6113b691905b808211156113b257600081600090555060010161139a565b5090565b9056fea265627a7a72315820d77b9c48bec2c0fdc63fa5e6693e9b037af289819a8d42c4ab64dbac45dd7b9764736f6c63430005100032",
  "source": "pragma solidity ^0.5.0;\r\n\r\nimport \"openzeppelin-solidity/contracts/math/SafeMath.sol\";\r\n\r\ncontract Voting {\r\n   using SafeMath for uint;\r\n\r\n   uint public timePeriod = block.timestamp + 30 seconds;\r\n   uint public timePeriodTest = block.timestamp + 40 seconds;\r\n   string public choice1;\r\n   string public choice2;\r\n   string public poll;\r\n   uint256 public pollCount;\r\n   uint256 public voteCount;\r\n   uint256 public voteId;\r\n   mapping(string => uint) public votes;\r\n   mapping(uint256 => _Poll) public polls;\r\n   // To Do List\r\n   // [x] Users can create a new poll with 2 choices \r\n   // [x] User can vote on one of the choices \r\n   // [x] Set a voting time period\r\n   // [x] At the end of the period, the one with more votes wins\r\n   event PollEvent(\r\n      uint256 id,\r\n      address user,\r\n      string poll,\r\n      string choice1,\r\n      string choice2,\r\n      uint256 timestamp\r\n   );\r\n\r\n   event VoteEvent(\r\n      uint256 id,\r\n      address user,\r\n      string poll,\r\n      string choice,\r\n      uint voteCount,\r\n      uint256 timestamp\r\n   );\r\n\r\n   struct _Poll {\r\n    uint256 id;\r\n    address user;\r\n    string poll;\r\n    string choice1;\r\n    string choice2;\r\n    uint256 timestamp;\r\n  }\r\n\r\n   function createPoll(string memory _poll, string memory _choice1, string memory _choice2) public {\r\n      pollCount = pollCount.add(1);\r\n      polls[pollCount] = _Poll(pollCount, msg.sender, _poll, _choice1, _choice2, now);\r\n      poll = _poll;\r\n      choice1 = _choice1;\r\n      choice2 = _choice2;\r\n      emit PollEvent(pollCount, msg.sender, _poll, _choice1, _choice2, now); \r\n   }\r\n\r\n   function vote(string memory _choice, string memory _poll) public {\r\n      // require(block.timestamp < timePeriod);\r\n      voteId = voteId.add(1);\r\n      votes[_choice] += 1;\r\n      emit VoteEvent(voteId, msg.sender, _poll, _choice, votes[_choice], now);\r\n   }\r\n}",
  "sourcePath": "C:/Users/ross4/Desktop/Coding/Blockchain-Code/transparent-voting/src/contracts/Voting.sol",
  "compiler": {
    "name": "solc",
    "version": "0.5.16+commit.9c3226ce.Emscripten.clang"
  },
  "schemaVersion": "3.2.3",
  "updatedAt": "2022-03-14T16:51:36.867Z",
  "networkType": "ethereum",
  "devdoc": {
    "methods": {}
  },
  "userdoc": {
    "methods": {}
  }
}